:100000000C9431190C9462190C9462190C946219B5
:100010000C9462190C9462190C9462190C94621974
:100020000C9462190C9462190C9462190C94621964
:100030000C9462190C94A9600C9462190C946219C6
:100040000C9462190C94694C0C9462190C9462190A
:100050000C9462190C9462190C940FD40C948F991F
:100060000C9462190C94EA410C9462190C94621974
:100070000C9462190C9462190C9462190C94621914
:100080000C9462190C9462190C9462190C94621904
:100090000C9462190C9462190C9462190C946219F4
:1000A0000C9462190C9462190C9462190C946219E4
:1000B0000C9462190C9462190C9462190C946219D4
:1000C0000C9462190C9462190C9462190C946219C4
:1000D0000C9462190C9462190C9462190C946219B4
:1000E0000C9462190C980F98FE97029808984698FD
:1000F000139817981D98219825982B982F98339826
:10010000469839983D984198AB98B098B598BF9863
:10011000C9984299D398DB98E398ED98F79801999C
:1001200010991A99429924992E993899084AD73BDF
:100130003BCE016E84BCBFFDC12F3D6C74319ABDB6
:1001400056833DDA3D00C77F11BED9E4BB4C3E91DA
:100150006BAAAABE000000803F05A84CCDB2D44EC9
:10016000B93836A9020C50B9918688083CA6AAAACB
:100170002ABE000000803F0047322F4733206261D3
:100180006420706172616D65746572730A00536CEE
:100190006565702E2E2E004D65736820706F696E38
:1001A000742063616E6E6F74206265207265736F78
:1001B0006C7665640A00286E6F2066696C6529009C
:1001C0005344207072696E74696E67206279746539
:1001D00020004E6F74205344207072696E74696EF3
:1001E000670A0043757272656E742066696C653AC1
:1001F000200046696C652064656C657465643A002E
:1002000044656C6574696F6E206661696C65642C09
:100210002046696C653A20002569730025696D20C8
:10022000256973002569682025696D20256973009B
:10023000256964202569682025696D20256973007A
:1002400025697920256964202569682025696D2044
:10025000256973005072696E742074696D653A2067
:10026000004B494C4C45442E20006F6B0020573A00
:10027000004520436F6F6C696E672E2E2E0045205F
:1002800048656174696E672E2E2E0020573A004231
:10029000656420636F6F6C696E672E2E2E00426559
:1002A000642068656174696E672E2E2E002C200014
:1002B0002C2000544845524D414C5F50524F5445FC
:1002C0004354494F4E004155544F5245504F52549C
:1002D0005F53445F53544154555300454D45524775
:1002E000454E43595F504152534552004341534597
:1002F0005F4C494748545F4252494748544E455322
:100300005300544F47474C455F4C494748545300AE
:10031000534F4654574152455F504F574552004244
:1003200055494C445F50455243454E54004C455648
:10033000454C494E475F44415441005A5F50524F2B
:100340004245004155544F4C4556454C005052498A
:100350004E545F4A4F420050524F4752455353004C
:100360004155544F5245504F52545F54454D5000E3
:10037000564F4C554D455452494300454550524FF8
:100380004D0053455249414C5F584F4E5F584F46C0
:1003900046004649524D574152455F4E414D453A00
:1003A0004D61726C696E20202847697468756229F6
:1003B00020534F555243455F434F44455F55524C80
:1003C0003A68747470733A2F2F6769746875622E77
:1003D000636F6D2F4D61726C696E4669726D7761E6
:1003E00072652F4D61726C696E2050524F544F43AD
:1003F0004F4C5F56455253494F4E3A312E30204DA7
:10040000414348494E455F545950453A4D586D2037
:100410005365726965732045585452554445525F7F
:10042000434F554E543A3120555549443A6365641B
:1004300065326132662D343161322D343734382DD6
:10044000396231322D63353563363266333637667D
:10045000660A002F2F20004D31343520533C696E41
:100460006465783E206F7574206F662072616E67D8
:10047000652028302D31290A0020540020520041E7
:100480006363656C65726174696F6E3A20500057E2
:1004900041524E494E4721204C6F77205A204A65E1
:1004A000726B206D6179206C65616420746F2075BA
:1004B0006E77616E746564207061757365732E0A62
:1004C00000205A00205900580020204D61783A2021
:1004D00000205A00205900580020204D696E3A2013
:1004E000004F6E20004F666600536F667420656E85
:1004F0006473746F70733A200020466C6F773A20F3
:1005000000000136372603FFFFFF353C3D380EFF64
:10051000FFFF312E303E12FFFFFFFF28FF0C0809BE
:10052000FFFFFF1A1C18FFFF2A08440AFF4320643C
:100530003A0020693A0020703A00496E76616C6991
:10054000642065787472756465720A0043290A0034
:1005500061626C656420286D696E2074656D702021
:1005600000436F6C642065787472756465732061F4
:100570007265200023646566696E652044454641C6
:10058000554C545F4B64200023646566696E65209A
:1005900044454641554C545F4B69200023646566D1
:1005A000696E652044454641554C545F4B702000B0
:1005B000504944204175746F74756E652066696E8C
:1005C0006973686564212050757420746865206CB7
:1005D000617374204B702C204B6920616E64204B3A
:1005E0006420636F6E7374616E74732066726F6DD6
:1005F0002062656C6F7720696E746F20436F6E6642
:10060000696775726174696F6E2E680A005049449B
:10061000204175746F74756E65206661696C6564E0
:10062000212074696D656F75740A00453120544846
:1006300045524D414C2052554E4157415900546846
:1006400065726D616C2052756E617761790045311C
:100650002048656174696E67206661696C65640035
:1006600048656174696E67206661696C65640050F5
:100670004944204175746F74756E65206661696CBC
:100680006564212054656D706572617475726520B2
:10069000746F6F20686967680A00204B643A200015
:1006A000204B693A2000204B703A20000A20436C0E
:1006B000617373696320504944200A002054753ADD
:1006C0002000204B753A2000206D61783A200020F0
:1006D0006D696E3A200020643A20002062696173DF
:1006E0003A2000504944204175746F74756E65203E
:1006F0006661696C6564212042616420657874726A
:1007000075646572206E756D6265720A00504944A9
:10071000204175746F74756E652073746172740A0C
:10072000004E6F2063617365206C696768740A000E
:100730004F66660A004661646520486569676874AB
:100740002000426564204C6576656C696E67200008
:100750004661696C656420746F20656E61626C65CA
:1007600020426564204C6576656C696E670A004DB1
:1007700065736820706F696E742063616E6E6F744C
:10078000206265207265736F6C7665640A004D3473
:10079000323120696E636F727265637420706172AA
:1007A000616D657465722075736167650A00454502
:1007B00050524F4D2064697361626C65640A004158
:1007C00063746976652045787472756465723A2041
:1007D00000496E76616C6964206578747275646531
:1007E000720A004E6F20436865636B73756D2077E6
:1007F000697468206C696E65206E756D6265722C17
:10080000204C617374204C696E653A20004B494C52
:100810004C45442E200053544F505045442E200048
:100820005072696E7465722073746F7070656420A5
:1008300064756520746F206572726F72732E204626
:10084000697820746865206572726F7220616E64C9
:1008500020757365204D39393920746F20726573A6
:10086000746172742E202854656D706572617475A0
:1008700072652069732072657365742E20536574E8
:100880002069742061667465722072657374617288
:1008900074696E67290A004E6F20436865636B7345
:1008A000756D2077697468206C696E65206E756D52
:1008B0006265722C204C617374204C696E653A201D
:1008C00000636865636B73756D206D69736D61742A
:1008D00063682C204C617374204C696E653A20006B
:1008E0004C696E65204E756D626572206973206E6D
:1008F0006F74204C617374204C696E65204E756D69
:100900006265722B312C204C617374204C696E65CA
:100910003A20004D313130004D33310053442072C4
:10092000656164206572726F720A00446F6E6520A3
:100930007072696E74696E672066696C650A002062
:10094000496E76616C69642065787472756465724D
:100950002000000000000000000000000000000077
:100960003E4300003E4300004843507265686561A5
:100970007420504C4120456E64005072656865617A
:100980007420504C41204265640050726568656176
:100990007420504C41005072657061726500507255
:1009A00065686561742041425320456E6400507251
:1009B000656865617420414253204265640050724D
:1009C00065686561742041425300507265706172C0
:1009D00065004D6F76696E672E2E2E004C6576652C
:1009E0006C696E6720446F6E6521004C6576656C9E
:1009F000696E6720446F6E6521004D6F7665205AE1
:100A000000473239205631004E65787420506F69A6
:100A10006E74002569202F20257500473239205635
:100A20003100436C69636B20746F20426567696EA7
:100A300000486F6D696E672058595A004732380078
:100A4000466164652048656967687400466164654D
:100A500020486569676874004F6666004F6E200025
:100A6000426564204C6576656C696E67004C6576FE
:100A7000656C206265640050726570617265004D3E
:100A8000343238005072656865617420504C410002
:100A9000436F6F6C646F776E0044697361626C655D
:100AA000207374657070657273004D38340053653F
:100AB0007420686F6D65206F66667365747300508F
:100AC0007265686561742041425300426564204C40
:100AD0006576656C696E6700486F6D65205A0047E2
:100AE0003238205A00486F6D65205900473238204F
:100AF0005900486F6D652058004732382058004132
:100B000075746F20686F6D6500473238004D6F76E1
:100B1000652061786973004D61696E004D6F76657F
:100B20002058004D6F76652059004D6F7665205A2C
:100B30000045787472756465720024F4D43050C333
:100B40008E20C2A24017828B7011127A910D816C97
:100B5000D90AA861E108C7586607615143061E4BD0
:100B60005D05C145A7041A411104093D9803713977
:100B700031034036DB0265339102D4305402802EBB
:100B80001D02632CEE01752AC501B028A0011027B3
:100B900081018F2564012B244B01E0223401AC211B
:100BA0001F018D200D01801FFC00841EED00971D8C
:100BB000DF00B81CD200E61BC600201BBC00641A74
:100BC000B200B219A8000A19A0006A189900D1173A
:100BD000910040178B00B516840031167E00B315C6
:100BE00079003A157300C7146F0058146A00EE13A9
:100BF00066008813630025135E00C7125B006C1249
:100C0000570015125400C111510070114F002111ED
:100C10004B00D61049008D104700461044000210CA
:100C20004200C00F4000800F3E00420F3C00060F04
:100C30003B00CB0E3800930E37005C0E3500270EBC
:100C40003400F30D3200C10D3100900D3000600D05
:100C50002E00320D2D00050D2C00D90C2B00AE0CF2
:100C60002900850C29005C0C2700350C27000E0C90
:100C70002600E80B2400C40B2400A00B23007D0BEE
:100C800023005A0B2100390B2100180B2000F80A11
:100C90001F00D90A1E00BB0A1E009D0A1D00800A03
:100CA0001D00630A1C00470A1B002C0A1B00110AC6
:100CB0001A00F7091A00DD091900C4091900AB0967
:100CC0001900920917007B091800630917004C09E5
:100CD000160036091600200916000A091500F50845
:100CE0001500E0081400CC081400B8081400A4088B
:100CF0001400900813007D0812006B0813005808B8
:100D000012004608120034081100230811001208CE
:100D1000110001081100F0071000E0071000D007D3
:100D20001000C0071000B0070F00A10710009107C6
:100D30000E0083070F0074070F0065070E005707AA
:100D40000E0049070E003B070D002E070E0020077E
:100D50000D0013070D0006070D00F9060C00ED0647
:100D60000D00E0060C00D4060C00C8060C00BC0602
:100D70000C00B0060C00A4060B0099060C008D06B2
:100D80000B0082060B0077060B006C060B00610659
:100D90000A0057060B004C060A0042060A003806F5
:100DA0000A002E060A0024060A001A060A00100687
:100DB000090007060A00FD050900F4050900EB0516
:100DC0000900E2050900D9050900D0050900C70599
:100DD0000900BE050900B5050800AD050800A50518
:100DE00009009C050800940508008C05080084058E
:100DF00008007C050800740508006C0507006505FF
:100E000008005D050700560508004E050700470568
:100E100007004005080038050700310507002A05CE
:100E20000700230507001C050600160507000F052F
:100E300007000805060002050700FB040600F5048C
:100E40000700EE040600E8040600E2040700DB04E5
:100E50000600D5040600CF040600C9040600C3043A
:100E60000600BD040600B7040600B1040500AC048A
:100E70000600A6040600A00405009B0406009504D5
:100E80000500900406008A0405008504050080041E
:100E900006007A04050075040500700405006B0463
:100EA000050066040500610405005C0405005704A4
:100EB0000500520405004D040500480405004304E4
:100EC00005003E0404003A04050035040500300422
:100ED00004002C04050027040400230405001E045C
:100EE00004001A04040016040500110404000D0493
:100EF0000400090405000404040000040400FC03C9
:100F00000400F8030400F4030400F0030400EC03FD
:100F10000400E8030400E4030400E0030400DC032D
:100F20000400D8030400D4030400D0030400CC035D
:100F30000400C8030300C503030024F404D9201BE4
:100F4000C40C5C0E9804C4095F0265077101F405C6
:100F5000F900FB04B30048048700C103690058038B
:100F6000550003034500BE023A00840231005302DB
:100F70002A002902250004022000E4011C00C80107
:100F80001900AF01170098011400840113007101CA
:100F900010006101100051010E0043010D003601E7
:100FA0000B002B010B0020010B00150109000C01A7
:100FB000090003010800FB000800F3000800EB0033
:100FC0000700E4000600DE000600D8000600D2009C
:100FD0000600CC000500C7000500C2000500BD00EA
:100FE0000400B9000400B5000400B1000400AD0025
:100FF0000400A9000400A5000300A20003009F0054
:1010000004009B0003009800030095000200930079
:101010000300900003008D0002008B000300880095
:1010200002008600020084000300810002007F00AD
:1010300002007D0002007B000200790002007700C0
:1010400001007600020074000200720001007100CD
:1010500002006F0002006D0001006C0002006A00D7
:1010600001006900020067000100660001006500E0
:1010700001006400020062000100610001006000E4
:1010800001005F0002005D0001005C0001005B00E8
:1010900001005A00010059000100580001005700EA
:1010A00001005600010055000100540001005300EA
:1010B00000005300010052000100510001005000E7
:1010C00001004F0001004E0000004E0001004D00E5
:1010D00001004C0001004B0000004B0001004A00E1
:1010E00001004900010048000000480001004700DD
:1010F00001004600000046000100450000004500D8
:1011000001004400010043000000430001004200D0
:1011100000004200010041000000410001004000C9
:1011200001003F0000003F0001003E0000003E00C3
:1011300001003D0000003D0001003C0000003C00BB
:1011400000003C0001003B0000003B0001003A00B1
:1011500000003A00010039000000390001003800A9
:1011600000003800000038000100370000003700A0
:101170000100360000003600000036000100350096
:10118000000035000000350001003400000034008C
:101190000000340001003300000033000000330081
:1011A0000100320000003200000032000100310076
:1011B000000031000000310001003000000030006C
:1011C0000000300001002F0000002F0000002F0061
:1011D00000002F0001002E0000002E0000002E0055
:1011E00001002D0000002D0000002D0000002D004A
:1011F00001002C0000002C0000002C0000002C003E
:1012000001002B0000002B0000002B0000002B0031
:1012100001002A0000002A0000002A0000002A0025
:101220000100290000002900000029000000290019
:10123000000029000100280000002800000028000C
:1012400000002800000028000100270000002700FF
:1012500000002700000027000000270001002600F2
:1012600000002600000026000000260000002600E6
:1012700001002500000025000000250000002500D9
:1012800000002500000025000100240000002400CB
:1012900000002400000024000000240001002300BE
:1012A00000002300000023000000230000002300B2
:1012B00000002300000023000100220000002200A3
:1012C0000000220000002200000022000000220096
:1012D0000100210000002100000021000000210089
:1012E000000021000000210000002100010020007A
:1012F000000020000000200000002000000020006E
:1013000000002000000020000000200001001F005D
:1013100000001F0000001F0000001F0000001F0051
:1013200000001F0000001F0001001E0000001E0042
:1013300000001E0000001E000000043700001E29EF
:101340000000511B00005810000010090000CC04E0
:10135000000078020000410100006265640A002C70
:101360002073797374656D2073746F707065642178
:10137000204865617465725F49443A200048617293
:1013800064636F6465642044656661756C742053A2
:10139000657474696E6773204C6F616465640A00DC
:1013A000DC050000DC0500006400000010270000E0
:1013B00000007A4300007A430000A0400000C841CA
:1013C000CD4CA14233B3A0420000C8440000AC425F
:1013D00020286D6D290020440020490020204D3335
:1013E00030312050005049442073657474696E6731
:1013F000733A0A0020460020420020480020204D79
:101400003134352053004D6174657269616C206818
:10141000656174757020706172616D657465727359
:101420003A0A00205A00204A00202047323920572B
:10143000204900205A0020204D34323020530041F2
:1014400075746F20426564204C6576656C696E67C3
:101450003A0A00205A0020590020204D3230362010
:101460005800486F6D65206F66667365743A0A00B0
:10147000204500205A002059002058002054002008
:10148000530020204D32303520510020453C6D6105
:10149000785F655F6A65726B3E0020583C6D6178CD
:1014A0005F785F6A65726B3E20593C6D61785F7949
:1014B0005F6A65726B3E205A3C6D61785F7A5F6A45
:1014C00065726B3E00416476616E6365643A2051DB
:1014D0003C6D696E5F7365676D656E745F74696D91
:1014E000655F75733E20533C6D696E5F666565642C
:1014F000726174653E20543C6D696E5F74726176F2
:10150000656C5F66656564726174653E00205400B9
:1015100020520020204D323034205000416363655A
:101520006C65726174696F6E2028756E6974732FB3
:101530007332293A20503C7072696E745F61636344
:10154000656C3E20523C726574726163745F6163C6
:1015500063656C3E20543C74726176656C5F6163B8
:1015600063656C3E0A00204500205A002059002087
:10157000204D3230312058004D6178696D756D20F5
:10158000416363656C65726174696F6E2028756E66
:101590006974732F7332293A0A00204500205A00DB
:1015A00020590020204D3230332058004D61786999
:1015B0006D756D206665656472617465732028754C
:1015C0006E6974732F73293A0A00204500205A006F
:1015D00020590020204D3932205800537465707313
:1015E0002070657220756E69743A0A0020204D32B1
:1015F00030302044300A0020204D3230302044006A
:101600002044697361626C65640A0046696C616DAF
:10161000656E742073657474696E67733A00202078
:101620004D3134392043203B20556E697473206955
:101630006E2043656C736975730A00202047323150
:10164000202020203B005452494747455245440042
:101650006F70656E003A20007A5F6D696E00795F89
:101660006D696E00785F6D696E005265706F72749F
:10167000696E6720656E6473746F70207374617433
:1016800075730A0000002200250028002B002E00A0
:101690003100340002010000050108010B010000C7
:1016A00020002300260029002C002F00320000011A
:1016B00000000301060109010505050507050808E5
:1016C0000808020202020A0A0808040404040101CC
:1016D00001010101010103030303030303030407E1
:1016E00007070C0C0C0C0C0C0C0C02020202060678
:1016F0000606060606060B0B0B0B0B0B0B0B01026B
:101700001020200808102040102040800201020113
:1017100008040201010204081020408080402010CB
:101720000804020180040201804020100804020124
:10173000080402010102040810204080010204088C
:101740001020408000000A0B02090C0D0E08070350
:101750000401000000000000000000000000000084
:101760000000000000000000000000000000000079
:101770001211100000000000000000000000000036
:1017800000000000000000000000024B494C4C45E6
:10179000442E2000202D20496E76616C69642065FE
:1017A00078747275646572206E756D626572202141
:1017B0000A00FFFFFFFFFFFFFFFFFFFFFFFFFFFF2D
:1017C000FFFF80000000000000000000000000009B
:1017D0000001800000000000000000000000000088
:1017E0000001800000000000000000000000000078
:1017F0000001800000000000000000000000000068
:101800000001800000000000000000000000000057
:101810000001800000003FE0000000000000000028
:101820000001800078007FF8000000000000000048
:1018300000018001FC007FFC0000000000000000AF
:1018400000018003FC00FFFC00000000000000001D
:1018500000018007FE00FFFC03C000000000000044
:1018600000018007FC01FFFE03E000000000000013
:1018700000018007FE039FFF83F00003C738F3E7F2
:10188000E0018003FF3F0007FFF00007EFFDFBF7DB
:10189000E001800007FE000FFFF000066CCD9B31D9
:1018A0008001800007FFC00FFE0000066CCD9B3159
:1018B0008001800007FFFFFFFF0000060CCD9B7139
:1018C0008001800007FFFFFFFF800007CCCDFBE118
:1018D0008001800007FFFFFFFF000003ECCDFBE16C
:1018E000800180001FFFC01FFF8000006CCD9B7136
:1018F00080018000FFFFC00FFFE000066CCD9B3130
:101900008001800FFFFFC007FFF80007ECCD9B3977
:101910008001803FC1FE0007FC7C0003CCCD9B19F9
:101920008001807FE0780000781F00000000000048
:10193000000180FFE0F00000380F80000000000090
:10194000000180FFE0E00000381FC0000000000040
:10195000000181FFE0E00000381FE000000000000F
:10196000000181FFE0E00000381FE007CFCF33C760
:10197000C00181FFE0E00000181FE007EFDFB7E7DC
:10198000E00181FFC0E00000181FE0066C19B66698
:10199000600181FF80E00000180FE0066C19B66658
:1019A0006001807F00E000001C0FC0066C18360646
:1019B0006001803C00E000001C07C0066FDF3606B7
:1019C0006001800E00E00000FC0F00066FCFB6063D
:1019D0006001800F83FC0003FFBE00066C01B6F6B9
:1019E00060018003E7FE0003FFFC00066C19B66689
:1019F00060018001FFFF0007FFF00007EFDFB7E69F
:101A0000600180007FFF800FFFC00007CFCF33C68B
:101A1000600180001FFF800FFFC000000000000079
:101A2000000180001FFFFFFFFF800000000000009A
:101A3000000180000FFFFFFFFF800000000000009A
:101A40000001800007FF3F87FF80000000000000CA
:101A50000001800007FF0003FFC00000181E7C7813
:101A6000000180000FFC000071CE0000183F7EFCDA
:101A700000018007BE380000E0FF0000183366CC8C
:101A80000001801FF81C0000E07F8000183366CC46
:101A90000001803FF01C0001C07F8000183366C049
:101AA0000001803FF01E07C1C07F8000183F7EF814
:101AB0000001807FF00E1FF3807F8000183F7C7C48
:101AC0000001807FF0073FFF803F80001833660CE5
:101AD0000001807FF003FFFF003F8000183366CCD9
:101AE0000001807FE003FFFE000C00001FB37EFCBE
:101AF0000001803FC001FFFE000000001FB37C78A2
:101B00000001801F80007FFE000000000000000038
:101B10000001800000007FFC0000000000000000C9
:101B20000001800000007FFC0000000000000000B9
:101B30000001800000003FF80000000000000000ED
:101B40000001800000000FE0000000000000000025
:101B50000001800000000000000000000000000004
:101B600000018000000000000000000000000000F4
:101B700000018000000000000000000000000000E4
:101B800000018000000000000000000000000000D4
:101B900000018000000000000000000000000000C4
:101BA0000001FFFFFFFFFFFFFFFFFFFFFFFFFFFF42
:101BB000FFFF000000000000000000000000000027
:101BC0000000000000000000000000000000000015
:101BD0000000000000000000000000000000000005
:101BE00000000000000000000000000000000000F5
:101BF00000000000000000000000000000000000E5
:101C000000000000000000000000000000000000D4
:101C100000000000000000000000000000000000C4
:101C200000000000000000000000000000000000B4
:101C300000000000000000000000000000000000A4
:101C40000000000000000000000000000000000094
:101C50000000000000000000000000000000000084
:101C60000000000000000000000000000000000074
:101C70000000000000000000000000000000000064
:101C80000000000000000000000000000000000054
:101C90000000000000000000000000000000000044
:101CA0000000000000000000000000000000000034
:101CB0000000000000000000000000000000000024
:101CC0000000000000000000000000000000000014
:101CD0000000000000000000000000000000000004
:101CE0000000000000000000000000000020205064
:101CF0006C616E6E65724275666665724279746576
:101D0000733A20002046726565204D656D6F7279CB
:101D10003A2000436F6D70696C65643A204F6374BC
:101D200020313620323031380A00207C2041757451
:101D3000686F723A20286E6F6E652C20646566614C
:101D4000756C7420636F6E666967290A00323031E2
:101D5000382D31302D313200204C61737420557094
:101D600064617465643A20000A0053444C530020B7
:101D7000536F6674776172652052657365740A00EB
:101D8000205761746368646F672052657365740AD5
:101D9000002042726F776E206F75742052657365F4
:101DA000740A002045787465726E616C2052657308
:101DB00065740A00506F77657255700A007374611C
:101DC00072740A006175746F25692E6700657272FE
:101DD0006F722077726974696E6720746F2066690C
:101DE0006C650A00456E6473746F70732025632000
:101DF000256320256320256300205A3A0020593AA4
:101E00000020583A00656E6473746F7073206869BF
:101E1000743A2000446F6E6520736176696E6720A6
:101E200066696C652E0A004D3239004D6F7665206B
:101E3000302E316D6D004D6F766520316D6D004D2A
:101E40006F76652031306D6D004D6F76652061785D
:101E50006973004578747275646572004D6F7665BC
:101E6000205A004D6F76652059004D6F76652058D9
:101E7000004578747275646572004D6F7665205AFE
:101E8000004D6F76652059004D6F766520580050E3
:101E900072657061726500526573746F7265206659
:101EA00061696C736166650046696C616D656E742D
:101EB00000506172616D65746572730054656D7078
:101EC00065726174757265004D61696E005072656E
:101ED000686561742041425320636F6E66005072E2
:101EE000656865617420504C4120636F6E660050D8
:101EF00049442D44005049442D44005049442D4943
:101F0000005049442D49005049442D500050494447
:101F10002D5000200820466163740020082046618F
:101F20006374002008204D6178002008204D6178FE
:101F3000002008204D6178002008204D696E0020A7
:101F400008204D696E002008204D696E004F6666BE
:101F5000004F6E20004175746F74656D70004661AE
:101F60006E2073706565640046616E2073706565F0
:101F7000640042656400426564004E6F7A7A6C6565
:101F8000004E6F7A7A6C6500436F6E74726F6C00EE
:101F900042656400426564004E6F7A7A6C65004E5B
:101FA0006F7A7A6C650046616E20737065656400B7
:101FB00046616E2073706565640054656D7065726E
:101FC00061747572650020746F6F206C6F6E67208E
:101FD000657874727573696F6E2070726576656E60
:101FE0007465640A0020636F6C6420657874727590
:101FF00073696F6E2070726576656E7465640A0031
:102000007C3C3E5E2B3D3F2F5B5D3B2C2A225C00DF
:102010004573746570732F6D6D00457374657073CF
:102020002F6D6D005A73746570732F6D6D005A7348
:10203000746570732F6D6D005973746570732F6DB7
:102040006D005973746570732F6D6D0058737465EE
:1020500070732F6D6D005873746570732F6D6D0004
:10206000506172616D65746572730053746570734D
:102070002F6D6D004A65726B00416363656C65721C
:102080006174696F6E0056656C6F636974790043A3
:102090006F6E74726F6C0046696C2E204469612EFD
:1020A0000046696C2E204469612E004F6666004F21
:1020B0006E20004520696E206D6D3300436F6E7495
:1020C000726F6C0043616E6E6F7420656E74657222
:1020D000207375626469723A2000022E2E004D61F1
:1020E000696E0044455620627920686F616E6763AF
:1020F000687500736D61727464657369676E6C6195
:1021000062732E636F6D004D586D20536572696563
:102110007300323031382D31302D31320053444C80
:102120005300486F6D6520257325732573206669FC
:10213000727374002066697273740A005A00590041
:102140005800486F6D65200042696C696E65617268
:10215000204C6576656C696E6720477269643A0A3F
:1021600000486F6D696E67206661696C6564004741
:102170007269642070726F62696E6720646F6E6549
:102180002E0A00206F662000706F696E742000694F
:10219000646C650A004D616E75616C2047323920B0
:1021A000004D616E75616C204732392061626F723B
:1021B0007465640A00202844525952554E2900473C
:1021C0003239204175746F20426564204C65766514
:1021D0006C696E67003F20284C2C522C462C4229FB
:1021E000206F7574206F6620626F756E64732E0A9F
:1021F000003F2856296572626F7365206C657665AD
:102200006C20697320696D706C61757369626C65AF
:102210002028302D34292E0A00426164205A20766D
:10222000616C75650A004E6F2062696C696E65614C
:102230007220677269640A000000210024002700F0
:102240002A002D00300033000101000004010701C5
:102250000A01526573656E643A20006F6B0020744A
:102260006F6F206C6F6E6720657874727573696F1D
:102270006E2070726576656E7465640A0020636F07
:102280006C6420657874727573696F6E2070726506
:1022900076656E7465640A00627573793A207061C0
:1022A0007573656420666F7220696E7075740A00BC
:1022B000627573793A2070617573656420666F7218
:1022C00020757365720A00627573793A2070726FB7
:1022D00063657373696E670A004B494C4C45442E25
:1022E00020004B494C4C2063617573656420627912
:1022F000204B494C4C20627574746F6E2F70696E60
:102300000A004B494C4C45442E20004B494C4C2074
:1023100063617573656420627920746F6F206D75D9
:10232000636820696E6163746976652074696D65A0
:10233000202D2063757272656E7420636F6D6D6100
:102340006E643A200025753A25303275002530320A
:10235000753A253032750025756420253032753A7E
:102360002530327500202020202020005A005900FE
:10237000202020200058000920000000000000005C
:102380000000000000000000000F1F301E000000D1
:1023900000000000000000001898B03100000000AC
:1023A000000000000061801818B03100000000003B
:1023B00000000000E1C01818B0300000000000006C
:1023C000000001E1E00F18B01E0000000000000056
:1023D0000003E1F00198B0030000000000000000DD
:1023E00003C0F00198B00300003F000000000000AF
:1023F0000C001198B02300007F8000000000001E38
:10240000000F1F3F1E00003F0000000000001E00E4
:102410000000000000007F8000000000000C003F72
:10242000FFFFFF80003F000000000003C0F000003D
:10243000000000007F80001FFFF803E1F0000000B3
:102440000000003F000020001001E1E0000000005B
:1024500000007F800040002000E1C000000000007C
:10246000003F00008000400061800000000000008C
:1024700012000100008000000000000000000012B7
:1024800000020001000000000000000000000C003D
:1024900007FFFE0000000000000000000000000038
:1024A0000000000000000F1F301E000000000000B0
:1024B00000000000001898B031000000000000008B
:1024C00000003F001818B0310000000000000000BC
:1024D000003F001818B030000000000000000000AD
:1024E0001E000F18B01E0000000000000000000CCD
:1024F000000198B00300000000000000000300305D
:102500000198B00300003F0000208100038C70118F
:1025100098B02300007F800010408003DEF00F1F82
:102520003F1E00003F000010408003DEF00000006E
:102530000000007F8000208100038C7000000000FC
:1025400000003F00004102000300300000000000D6
:10255000007F80009FFFF8000C00000000000000DA
:102560003F0000A20410001E000000000000007FD9
:102570008000410220003F000000000000003F00FA
:1025800000A08140003F000000000000001E00018C
:102590000000800000000000000000001E0002009B
:1025A00001000000000000000000000C0007FFFE1A
:1025B000000000004D586D2053657269657320520C
:1025C000656164792E005072696E74696E672E2E93
:1025D0002E005072696E742070617573656400001E
:1025E000060900FE000000000001090008FE0000CE
:1025F00005080806000040F0C8888898781005088B
:1026000008060000C0F88888888888F8050505064F
:1026100000012030F830200508080600002070F87E
:1026200020202020E00509090600FF2070A8A8B896
:10263000888870200509090600FFE080C0B0A8283E
:102640003028280509090600FFF8A88888888888A6
:10265000A8F8050A0A0600FE205050505088A8A885
:10266000887003030306000340A0401000C9021055
:10267000012C014001220170011801B0010E01F08E
:102680000104015002FA00B002F0003003E600D06D
:1026900003DC009004D2007005C800A006BE000054
:1026A00008B400B009AA00D00BA000600E9600602C
:1026B000118C000015820020197800C01D6E00A04A
:1026C000226400B0275A00902C500000314600E0F0
:1026D000343C0010383200903A2800603C1E00A0C4
:1026E0003D1400803E0A00203F00002042403A0096
:1026F00020403A00434F4D4D554E49434154494FB8
:102700004E0044525952554E004552524F525300BA
:10271000494E464F004543484F00436C69636B2068
:10272000746F20726573756D652E2E2E004E6F20AE
:102730006D6F76652E00456E642066696C65206C51
:102740006973740A00426567696E2066696C65206A
:102750006C6973740A0050726F74656374656420E9
:1027600050696E0A001527102709270227F4266FE3
:1027700066660044454255473A004D313133205397
:102780000050533A310A0050533A300A004D586D08
:1027900020536572696573204F66662E00205A3A91
:1027A0000020423A0020436F756E7420413A0020A9
:1027B000453A00205A3A0020593A00583A003A0067
:1027C0004361703A004F6666736574732061707080
:1027D0006C696564004572723A20546F6F206661BF
:1027E000722100546F6F206661722066726F6D20D7
:1027F0007265666572656E636520706F696E740AD6
:10280000005654726176206D696E0056547261767E
:10281000206D696E005654726176206D696E0056A7
:102820006D696E00566D696E00566D696E00566D6D
:102830006178204500566D6178204500566D6178BD
:10284000204500566D6178205A00566D6178205AF7
:1028500000566D6178205A00566D617820590056F7
:102860006D6178205900566D6178205900566D6170
:1028700078205800566D6178205800566D61782098
:102880005800506172616D657465727300416D61CD
:1028900078204500416D6178204500416D617820C8
:1028A0005A00416D6178205A00416D6178205900CD
:1028B000416D6178205900416D6178205800416D6B
:1028C0006178205800412D74726176656C00412D4D
:1028D00074726176656C00412D7265747261637407
:1028E00000412D7265747261637400416363656CAD
:1028F00000416363656C00506172616D657465725F
:10290000730056652D6A65726B0056652D6A657297
:102910006B0056652D6A65726B00567A2D6A65727A
:102920006B00567A2D6A65726B0056792D6A657256
:102930006B0056792D6A65726B0056792D6A657247
:102940006B0056782D6A65726B0056782D6A657239
:102950006B0056782D6A65726B00506172616D650F
:102960007465727300556E6B6E6F776E20636F6D5A
:102970006D616E643A202200000048420000484227
:102980000000804000000000534420636172642016
:102990006F6B0A006F70656E526F6F7420666169AD
:1029A0006C65640A00766F6C756D652E696E69746E
:1029B000206661696C65640A00534420696E69741D
:1029C000206661696C0A0057726974696E672074C9
:1029D0006F2066696C653A20006F70656E206661D5
:1029E000696C65642C2046696C653A20006F7065DF
:1029F0006E206661696C65642C2046696C653A20BE
:102A00000046696C652073656C65637465640A00D3
:102A10002053697A653A200046696C65206F7065BD
:102A20006E65643A20002066696C653A2000646F28
:102A3000696E67006672657368004E6F77200045A7
:102A40004E4420535542524F5554494E450A002298
:102A500020706F73002220706172656E743A2200DC
:102A6000535542524F5554494E452043414C4C20FA
:102A70007461726765743A22004B494C4C45442E90
:102A80002000747279696E6720746F2063616C6CCA
:102A9000207375622D67636F64652066696C65736A
:102AA000207769746820746F6F206D616E79206C77
:102AB0006576656C732E204D4158206C6576656C8B
:102AC0002069733A004572726F723A0043616E6E0C
:102AD0006F74206F70656E20737562646972200078
:102AE0006563686F3A006F70656E206661696C653A
:102AF000642C2046696C653A20005072696E74201F
:102B000061626F72746564004D383000506F776594
:102B100072204F6666004D38310041626F75742037
:102B20005072696E746572004E6F20534420636169
:102B30007264005072696E742066726F6D20534427
:102B40000053746F70207072696E740052657375F3
:102B50006D65207072696E7400476F6F64204279F2
:102B600065005061757365207072696E7400436F03
:102B70006E74726F6C00507265706172650054758E
:102B80006E65005374617475732073637265656E4E
:102B900000466C6F7700466C6F770046616E20735D
:102BA000706565640046616E2073706565640042FF
:102BB000656400426564004E6F7A7A6C65004E6F02
:102BC0007A7A6C6500466164652048656967687457
:102BD00000466164652048656967687400537065E4
:102BE0006564005370656564004D61696E004265FF
:102BF000642068656174696E67206661696C6564EC
:102C00000048656174696E67206661696C6564007F
:102C100045312048656174696E67206661696C653D
:102C2000640048656174696E67206661696C6564FB
:102C300000453120544845524D414C2052554E419B
:102C40005741590042454420544845524D414C207B
:102C500052554E4157415900546865726D616C2060
:102C600052756E61776179004531204572723A2064
:102C70004D415854454D50004572723A204D4158CF
:102C800054454D5020424544004D415854454D5007
:102C9000207472696767657265640045312045720A
:102CA000723A204D494E54454D50004572723A20BB
:102CB0004D494E54454D5020424544004D494E54D7
:102CC000454D5020747269676765726564004D38C0
:102CD0003420582059205A204500202F004361728B
:102CE000642072656D6F766564004361726420696B
:102CF0006E7365727465640000060900FE07019238
:102D00000321207FFF07FF07FF00000006000001EE
:102D10000707060200808080808000800302020690
:102D20000105A0A00507070600005050F850F85014
:102D3000500507070600002078A07028F02005073E
:102D400007060000C0C810204098180507070600B5
:102D5000006090A040A89068020303060104C040F0
:102D60008003070706010020408080804020030781
:102D70000706010080402020204080050505060050
:102D80000120A870A8200505050600012020F820D4
:102D9000200203030602FFC0408005010106000374
:102DA000F8020202060200C0C0050505060001087F
:102DB00010204080050707060000708888888888F2
:102DC0007003070706010040C040404040E005078F
:102DD00007060000708808708080F8050707060065
:102DE00000F81020100808F0050707060000103052
:102DF0005090F81010050707060000F880F008084A
:102E00008870050707060000708080F088887005CC
:102E10000707060000F808102020202005070706F5
:102E200000007088887088887005070706000070A9
:102E3000888878080870020505060200C0C000C036
:102E4000C00206060602FFC0C000C040800407079B
:102E500006000010204080402010050303060002F9
:102E6000F800F80407070601008040201020408089
:102E700005070706000070880810200020050707D6
:102E800006000070880868A8A870050707060000FB
:102E9000708888F8888888050707060000F0888809
:102EA000F08888F005070706000070888080808819
:102EB00070050707060000F08888888888F00507F5
:102EC00007060000F88080F08080F80507070600FC
:102ED00000F88080F0808080050707060000708879
:102EE00080B8888870050707060000888888F888F9
:102EF0008888010707060200808080808080800526
:102F0000070706000038101010109060050707062C
:102F100000008890A0C0A0908805070706000080E8
:102F20008080808080F805070706000088D8A88880
:102F30008888880507070600008888C8A8988888B8
:102F400005070706000070888888888870050707CD
:102F5000060000F08888F0808080050707060000E2
:102F600070888888A89068050707060000F08888A0
:102F7000F0A0908805070706000078808070080898
:102F8000F0050707060000F8202020202020050774
:102F9000070600008888888888887005070706006B
:102FA00000888888888850200507070600008888E0
:102FB000888888A850050707060000888850205098
:102FC000888805070706000088888850202020058B
:102FD0000707060000F80810204080F803070706DE
:102FE0000100E08080808080E0050505060001800A
:102FF00040201008030707060100E02020202020C1
:10300000E0050303060004205088050101060000C6
:10301000F802020206020580400505050600007060
:10302000087888780507070600008080B0C888887F
:10303000F00505050600007080808870050707060A
:103040000000080868988888780505050600007063
:1030500088F880700507070600003048E0404040CF
:10306000400506060600FF70888878087005070787
:103070000600008080B0C888888801070706020023
:10308000800080808080800308080601FF200020E7
:10309000202020A040040707060000808090A0C0E8
:1030A000A090030707060100C04040404040E005F3
:1030B0000505060000D0A8A8A8A80505050600007B
:1030C000B0C8888888050505060000708888887063
:1030D0000506060600FFF08888F0808005060606D3
:1030E00000FF788888780808050505060000B0C844
:1030F00080808005050506000070807008F00407D8
:10310000070600004040E04040403005050506004D
:10311000008888889868050505060000888888501A
:10312000200505050600008888A8A85005050506A5
:10313000000088502050880506060600FF88888811
:10314000780870050505060000F8102040F8030710
:10315000070601002040408040402001070706028A
:103160000080808080808080030707060100804007
:1031700040204040800502020600026890000000E6
:103180000600004D3234004D323320257300506C60
:1031900065617365207265736574005052494E54C1
:1031A00045522048414C544544005072696E746544
:1031B000722068616C7465642E206B696C6C2829C0
:1031C0002063616C6C6564210A00656E71756575BC
:1031D00065696E672022000000000000000000000A
:1031E0000000005761726E696E673A20486F6D6922
:1031F0006E672042756D702044697669736F722026
:103200003C20310A000202040000A0400000A0405F
:103210000000004000003E4300003E4300004843E1
:10322000FFFFFF4E414E494E495459494E46CDCCC1
:10323000CC3D0AD7233C17B7D13877CC2B329595A4
:10324000E6241FB14F0A000020410000C8420040A0
:103250001C4620BCBE4CCA1B0E5AAEC59D74D4EE93
:103260004EF111241FBECFEFD1E2DEBFCDBF00E093
:103270000CBF12E0A0E0B2E0E8E8FBEF01E00BBF1A
:1032800002C007900D92AE3FB107D9F724E1AEEF2F
:10329000B2E001C01D92A431B207E1F719E1C0E329
:1032A000D9E100E006C021970109802FFE010E94AC
:1032B000B3F1CF32D10780E00807A9F70E9493E964
:1032C0000C94B2FD0C9400002F923F924F925F92AB
:1032D0006F927F928F929F92AF92BF92CF92DF9226
:1032E000EF92FF920F931F93CF93DF93CDB7DEB78B
:1032F000C359D1090FB6F894DEBF0FBECDBF21E090
:103300002093340C8091990B8D3409F4DAC78435FD
:1033100011F40C943D32873411F00C948932E09012
:10332000970BF090980B3CE1E316F10409F45CC6AE
:1033300094F454E0E516F10444F482E0E816F10454
:103340000CF054C0F7FE26C0B8C794E0E916F104AB
:1033500009F40CC6B2C7AAE5EA16F10409F4A5C738
:103360005CF4EDE1EE16F10409F4ECC6FAE2EF16B6
:10337000F10409F4EBC6A1C73BE5E316F10409F437
:1033800098C74CE5E416F10409F097C70E944FB9BD
:103390000C948B3280911802882311F40C948B3298
:1033A0008AE50E94C43D482F89E5C157DF4F488315
:1033B000CF58D0400E94C43D682F88E5C257DF4FE8
:1033C0006883CE58D0400E94C43DC157DF4F48812A
:1033D000CF58D040C257DF4F6881CE58D0400E94AE
:1033E000309081110C948B320C94903241E061E06A
:1033F00081E00E94309081110C948B3280911802F0
:10340000882311F40C948B3211E052E0E516F1049C
:1034100009F010E00E948D8C82E50E940B3E88230B
:1034200009F444C10E94913D6B017C014090210E42
:103430005090220E6090230E7090240E8091250EE5
:103440009091260EA091270EB091280E8CAB9DABCB
:10345000AEABBFAB2091FE133091FF13409100142F
:103460005091011428AF39AF4AAF5BAF809102147D
:1034700090910314A0910414B091051424968CAF7C
:103480009DAFAEAFBFAF249720E030E0A901C701E8
:10349000B6010E94B2F9882309F44EC5A301920136
:1034A00068AD79AD8AAD9BAD0E94B2F981110FC0B4
:1034B0002CA93DA94EA95FA924966CAD7DAD8EAD1A
:1034C0009FAD24970E94B2F9882309F435C520E006
:1034D00030E0A901C701B6010E94B2F9881F882710
:1034E000881F18130BC020E030E040E85FE36096CF
:1034F0002CAF3DAF4EAF5FAF60970AC080E090E069
:10350000A0E8BFEB60968CAF9DAFAEAFBFAF60974A
:10351000A301920168AD79AD8AAD9BAD0E94C3F164
:1035200028966CAF7DAF8EAF9FAF28972CA93DA991
:103530004EA95FA924966CAD7DAD8EAD9FAD24974D
:103540000E94C3F12C966CAF7DAF8EAF9FAF2C97CE
:1035500028962CAD3DAD4EAD5FAD2897CA01B9019F
:103560000E9417FA4B015C012C962CAD3DAD4EAD7F
:103570005FAD2C97CA01B9010E9417FA9B01AC01FB
:10358000C501B4010E94C4F10E9455F46CAF7DAF37
:103590008EAF9FAF20E030E040E05FE30E9417FA7B
:1035A0004B015C01A7019601C701B6010E9417FA01
:1035B0006B017C01A5019401C501B4010E9417FAB9
:1035C0009B01AC01C701B6010E94C3F10E9455F4F2
:1035D0009B01AC0160966CAD7DAD8EAD9FAD6097EB
:1035E0000E9417FA4B015C0128AD39AD4AAD5BADC5
:1035F000C301B2010E94C4F120E030E040E05FE38B
:103600000E9417FA6B017C012C966CAD7DAD8EADDE
:103610009FAD2C9790582CAD3DAD4EAD5FAD0E9447
:10362000B0F29B01AC01C501B4010E9417FA9B01E5
:10363000AC01C701B6010E94C4F1A30192010E942E
:10364000C3F16B017C0124962CAD3DAD4EAD5FAD59
:1036500024976CA97DA98EA99FA90E94C4F120E09E
:1036600030E040E05FE30E9417FA2B013C012CADF3
:103670003DAD4EAD5FAD28966CAD7DAD8EAD9FADD1
:1036800028970E94B0F29B01AC01C501B4010E94D1
:1036900017FA9B01AC01C301B2010E94C4F12CA92D
:1036A0003DA94EA95FA90E94C3F114C089E40E94FC
:1036B0000B3E882329F00E94913D6B017C0103C0E1
:1036C000C12CD12C76018AE40E940B3E8823F9F0AC
:1036D0000E94913D24966CAF7DAF8EAF9FAF249733
:1036E00020E030E0A901C701B6010E94B2F98111C2
:1036F0001EC020E030E0A90124966CAD7DAD8EADFA
:103700009FAD24970E94B2F9811111C015C420E029
:1037100030E0A901C701B6010E94B2F9882309F47B
:103720000BC424961CAE1DAE1EAE1FAE2497A7017F
:10373000960150582CAB3DAB4EAB5FAB24968CAD95
:103740009DADAEADBFAD2497B05888AF99AFAAAFCD
:10375000BBAFCA01B9010E9417FA4B015C0128AD49
:1037600039AD4AAD5BADCA01B9010E9417FA9B01A0
:10377000AC01C501B4010E94C4F10E9455F46C96DD
:103780006CAF7DAF8EAF9FAF6C972091210E3091C3
:10379000220E4091230E5091240E2CAF3DAF4EAF20
:1037A0005FAFA70196016CAD7DAD8EAD9FAD0E9460
:1037B000C4F160966CAF7DAF8EAF9FAF6097809184
:1037C000250E9091260EA091270EB091280E2896D6
:1037D0008CAF9DAFAEAFBFAF289724962CAD3DAD5B
:1037E0004EAD5FAD2497BC01CD010E94C4F1A096FF
:1037F0006CAF7DAF8EAF9FAFA0972091FE1330913D
:10380000FF1340910014509101142C962CAF3DAF42
:103810004EAF5FAF2C9760962CAD3DAD4EAD5FAD1A
:1038200060972C966CAD7DAD8EAD9FAD2C970E94B0
:10383000C3F16B017C018091021490910314A0915B
:103840000414B091051464968CAF9DAFAEAFBFAFBA
:103850006497A0962CAD3DAD4EAD5FADA097BC0179
:10386000CD010E94C3F14B015C012091290E3091E2
:103870002A0E40912B0E50912C0E68962CAF3DAF26
:103880004EAF5FAF689760910614709107148091F6
:103890000814909109140E94C3F12B013C018091FE
:1038A0000A1490910B14A0910C14B0910D14A896C9
:1038B0008CAF9DAFAEAFBFAFA89720912D0E3091CA
:1038C0002E0E40912F0E5091300EA4962CAF3DAF8E
:1038D0004EAF5FAFA497A70196016CA97DA98EA9F1
:1038E0009FA90E9417FAAC966CAF7DAF8EAF9FAFC9
:1038F000AC97A501940168AD79AD8AAD9BAD0E94EE
:1039000017FA9B01AC01AC966CAD7DAD8EAD9FAD51
:10391000AC970E94C4F1AC966CAF7DAF8EAF9FAFF9
:10392000AC97A50194016CA97DA98EA99FA90E94BD
:1039300017FA4B015C01A701960168AD79AD8AAD1C
:103940009BAD0E9417FA9B01AC01C501B4010E9416
:10395000C3F1AC962CAD3DAD4EAD5FADAC970E94C2
:1039600042F26B017C0120E030E0A9010E94B2F933
:1039700087FF0AC02BED3FE049EC50E4C701B601D8
:103980000E94C4F16B017C01112351F02BED3FE04B
:1039900049EC50E4C701B6010E94C3F16B017C0100
:1039A00020E030E0A901C701B6010E94B2F98111FF
:1039B00026C02C962CAD3DAD4EAD5FAD2C976CADB9
:1039C0007DAD8EAD9FAD0E94B2F9811118C0649695
:1039D0002CAD3DAD4EAD5FAD649728966CAD7DAD21
:1039E0008EAD9FAD28970E94B2F9811108C08BED72
:1039F000C82E8FE0D82E89ECE82E80E4F82EA7019F
:103A000096016C966CAD7DAD8EAD9FAD6C970E94AE
:103A100017FA4B015C0120E030E0A901C301B201BB
:103A20000E94B2F98823C9F0A5019401C501B4012F
:103A30000E9417FA4B015C01A3019201C301B2017C
:103A40000E9417FA9B01AC01C501B4010E94C4F1A8
:103A50000E9455F44B015C010DC020E030E0A9014B
:103A6000C501B4010E940CF487FF04C0B7FAB094FA
:103A7000B7F8B0942FE632E143E85AE3C501B40148
:103A80000E94B2F987FF02C00C948B32C501B401C9
:103A90000E9456F30E9427F31B01672B19F422247E
:103AA0002394312CB10180E090E00E94B6F94B01E3
:103AB0005C019B01AC01C701B6010E94B0F26CAF82
:103AC0007DAF8EAF9FAFA5019401C301B2010E94EB
:103AD000B0F26C966CAF7DAF8EAF9FAF6C97A49633
:103AE0002CAD3DAD4EAD5FADA497A8966CAD7DAD50
:103AF0008EAD9FADA8970E94C3F1A50194010E94CD
:103B0000B0F2A8966CAF7DAF8EAF9FAFA8972CADEB
:103B10003DAD4EAD5FADCA01B9010E9417FA20E07C
:103B200030E040E05FE30E9417FA9B01AC0160E0E7
:103B300070E080E89FE30E94C3F164966CAF7DAFB4
:103B40008EAF9FAF649768968CAD9DADAEADBFADA7
:103B5000689789879A87AB87BC87A4962CAD3DADC3
:103B60004EAD5FADA4972D873E874F87588B6091F0
:103B7000650270916602072E000C880B990B0E945B
:103B8000B8F920915B0230915C0240915D02509146
:103B90005E020E9417FA2AE037ED43E25CE30E94DE
:103BA00017FA68AB79AB8AAB9BAB0E9483999B01F8
:103BB000AC0128533F4F4F4F5F4F68962CAF3DAF3E
:103BC0004EAF5FAF68974CA85DA86EA87FA841E094
:103BD00050E02A965FAF4EAF2A9759E125965FAF26
:103BE00025972A962EAD3FAD2A972215330509F465
:103BF00048C10E94BCD50E948399DC01CB01689624
:103C00002CAD3DAD4EAD5FAD6897821B930BA40B01
:103C1000B50BB7FD10C00E9483999B01AC012853DE
:103C20003F4F4F4F5F4F68962CAF3DAF4EAF5FAFEA
:103C300068970E94129D25963FAD25973150259695
:103C40003FAF2597332309F441C064962CAD3DADB9
:103C50004EAD5FAD649768AD79AD8AAD9BAD0E9406
:103C600017FA6B017C012CAD3DAD4EAD5FADB201DD
:103C7000C3010E9417FAA70196010E94C4F17B01BB
:103C80008C0164962CAD3DAD4EAD5FAD6497B20135
:103C9000C3010E9417FA4B015C012CAD3DAD4EAD46
:103CA0005FAD68AD79AD8AAD9BAD0E9417FA9B01FF
:103CB000AC01C501B4010E94C3F12B013C01C70155
:103CC000D80188AF99AFAAAFBBAF59C02A964EAD05
:103CD0005FAD2A97BA0180E090E00E94B6F92CAD62
:103CE0003DAD4EAD5FAD0E9417FA4B015C010E94E5
:103CF000ADF26B017C01C501B4010E944AF44B0195
:103D00005C01A70196016CA97DA98EA99FA90E94BB
:103D100017FA2B013C01A501940124966CAD7DADF1
:103D20008EAD9FAD24970E9417FA9B01AC01C30191
:103D3000B2010E94C4F12B013C01A50194016CA9C0
:103D40007DA98EA99FA90E9417FA4B015C01A701CA
:103D5000960124966CAD7DAD8EAD9FAD24970E94EB
:103D600017FA9B01AC01C501B4010E94C3F168AF11
:103D700079AF8AAF9BAF59E125965FAF2597920146
:103D8000A30160966CAD7DAD8EAD9FAD60970E9436
:103D9000C4F169837A838B839C8328AD39AD4AADA6
:103DA0005BADA0966CAD7DAD8EAD9FADA0970E9432
:103DB000C4F16D837E838F8398876C962CAD3DAD67
:103DC0004EAD5FAD6C9769857A858B859C850E9429
:103DD000C4F169877A878B879C87A8962CAD3DAD07
:103DE0004EAD5FADA8976D857E858F8598890E94C1
:103DF000C4F16D877E878F87988B80910E02882310
:103E000021F0CE0101960E9423E7E090A51318A6A9
:103E100019A61AA61BA689819A81AB81BC818C8FB9
:103E20009D8FAE8FBF8F8D819E81AF81B88588A316
:103E300099A3AAA3BBA389859A85AB85BC858CA3CE
:103E40009DA3AEA3BFA3AE014C5D5F4FBE01605EFC
:103E50007F4FCE014C960E945479CE0188966C011A
:103E60008E01005D1F4F9E01235F3F4FAE014C5DF1
:103E70005F4FBE01605E7F4F0C970E94E268811128
:103E800051C0E090A5131CA61DA61EA61FA68091DA
:103E9000FE139091FF13A0910014B09101148C8F28
:103EA0009D8FAE8FBF8F8091021490910314A091CB
:103EB0000414B091051488A399A3AAA3BBA380916D
:103EC000061490910714A0910814B09109148CA3C2
:103ED0009DA3AEA3BFA3AE014C5D5F4FBE01605E6C
:103EE0007F4FCE014C960E945479DE019C966D0165
:103EF0008E01005D1F4F2AE034E1AE014C5D5F4F43
:103F0000BE01605E7F4FCE014C960E94E26880E168
:103F1000EEEFF3E1A1E2BEE001900D928A95E1F7A8
:103F20000C948B322A96EEADFFAD2A9731962A96E5
:103F3000FFAFEEAF2A9755CEE5ECFAE284918F0100
:103F40000F5F1F4F882321F00E94273EF801F6CF14
:103F5000E8E7F1E084918F010F5F1F4F882311F490
:103F60000C948B320E94273EF801F4CF80E50E942A
:103F70000B3E882329F00E94513D6B017C0103C058
:103F8000C12CD12C760183E50E940B3E882361F081
:103F90000E94913D20E030E04AE754E40E9417FA85
:103FA0000E9427F36B017C010E9491778091090E9A
:103FB000811105C060E08EE891E00E94E6E20E9477
:103FC0008399C60ED71EE81EF91E0E948399DC0154
:103FD000CB018C199D09AE09BF09B7FD02C00C9435
:103FE0008B320E94129DF1CF8091680987708730D3
:103FF00071F48FE40E940B3E882319F00E94823DE9
:1040000003C08FE40E94C43D81110C948B320E9446
:1040100091771092A00380E00E94E08E0E94E290CF
:1040200011E01093670988E50E94C43DE82E89E5F8
:104030000E94C43D082F8AE50E94C43DF82EE1107D
:1040400004C0011104C0182705C0011102C010E00E
:1040500001C0182F0E941D3E8091680982FF37C061
:1040600082E50E940B3E882391F10E94913D4B0115
:104070005C0120E030E0A9010E94B2F9882339F107
:10408000111104C0E11002C0002391F180920614C6
:1040900090920714A0920814B09209142091290E4E
:1040A00030912A0E40912B0E50912C0EC501B40177
:1040B0000E940CF418165CF419821A821B821C826E
:1040C000BE016F5F7F4F86E094E10E9432C71111FD
:1040D00005C0E11003C0011106C00AC080E00E94C3
:1040E000B5E71123C1F381E00E94B5E7111102C0C9
:1040F000FF2019F082E00E94B5E70E940A3D8091FE
:104100006609809367098091000390910103A09153
:104110000203B091030380935B0290935C02A0932F
:104120005D02B0935E028091FE029091FF02909337
:1041300066028093650283E0809356020E9496B4E3
:104140000C948B320E9401910C948B3241E061E01F
:1041500081E00E94309081110C948B328091180282
:10416000882311F40C948B3289E40E940B3E082FB3
:10417000882321F00E94613DE62E01C0E12C8AE4F3
:104180000E940B3EF82E882331F00E94613D162FCD
:10419000011104C00BC010E00023B9F032E03E155D
:1041A00010F00C940E38E7E9F1E003C01330D8F7B3
:1041B0000CC084918F010F5F1F4F882311F40C9462
:1041C0008B320E94273EF801F4CF0E941D3E00234F
:1041D000F1F020919703309198034E2D4203B001E6
:1041E000439F700D11242091240C3091250C620FF7
:1041F000731F072E000C880B990B0E94B8F960936F
:10420000FE137093FF138093001490930114FF200A
:10421000E9F02091990330919A031203B001139FA2
:10422000700D11248091260C9091270C680F791F36
:10423000072E000C880B990B0E94B8F960930214AA
:1042400070930314809304149093051480E50E94E6
:104250000B3E882319F00E94823D03C080E50E9436
:10426000C43D86E40E940B3E8823D9F00E94913D14
:104270006B017C0120E030E0A9010E940CF41816CB
:1042800084F420E030E040E752E4C701B6010E9428
:10429000B0F260935B0270935C0280935D02909336
:1042A0005E020E940DA00C948B32109208030C94B5
:1042B0008B32209308030C948B320E94F4C70C9429
:1042C0008B328091970B9091980B8137910509F46F
:1042D000FBC30CF0C5C08B34910509F4CEC30CF0C0
:1042E00063C08831910509F4B0C174F5823191053C
:1042F00009F4ACC484F497FF02C00C943A328230C3
:1043000091050CF494C1419711F00C943A320E943B
:10431000B7B80C948B328531910509F48CC144F403
:10432000449711F00C943A320E945FB80C948B328F
:104330008631910509F483C1479711F00C943A3204
:104340000E944BB80C948B328D31910511F40C9472
:104350008B32C4F48A31910509F486C10CF47EC114
:104360008B31910509F48EC14C9711F00C943A32BF
:1043700040E060E08091950B9091960B0E94FDC209
:104380000C948B328F31910509F4D1C20CF4F2C137
:104390008032910509F47FC28A9711F00C943A3269
:1043A0000E94FEB70C948B328C35910509F46DC4D4
:1043B00024F58135910509F43CC47CF48D349105D4
:1043C00009F463C30CF45DC38035910511F00C94BE
:1043D0003A320E94DDB60C948B328335910509F494
:1043E00030C40CF42AC48435910509F42FC48535F2
:1043F000910509F42FC40C943A328C36910509F4D6
:104400005FC3DCF48936910509F462C34CF4883645
:10441000910511F00C943A320E94B8B70C948B328B
:104420008A36910509F4E7C38B36910511F00C9497
:104430003A320E94A9B70C948B328E36910509F45A
:1044400028C30CF487C38F36910509F435C3803730
:10445000910511F00C943A3281E692E00E94FDE859
:104460008C3D910511F40C94D02A0CF05BC081397D
:10447000910509F4C1C50CF58637910509F45FC5AE
:1044800064F48337910509F4EBC40CF487C48537D1
:10449000910509F443C50C943A328837910509F423
:1044A0009EC50CF498C58937910509F49FC58C38D1
:1044B000910509F46BC30C943A328B3C910509F4D5
:1044C00076C6F4F48E3B910509F47EC334F48B393F
:1044D000910509F418C30C943A32883C910509F40B
:1044E00005C6893C910511F00C943A329AEDE92EFB
:1044F0009DE0F92E05E712E024E0D22ED00E3EC654
:104500008D3C910509F4E9C60CF46FC68E3C91050B
:1045100009F482C4833D910511F00C943A32E0EE27
:10452000FAE260C7843A51E0950711F40C941F3009
:10453000F4F58E32B1E09B0711F40C94402CD4F4C6
:10454000823E910511F40C944B2B3CF48D3D91056A
:1045500011F40C94DD2A0C943A328C32F1E09F076E
:1045600011F40C94762B8D32914011F40C949F2B06
:104570000C943A32833631E0930711F40C940330F3
:104580003CF48F32914011F40C94942C0C943A32F8
:104590008039A1E09A0711F40C941C308A399140BB
:1045A00011F00C943A320E9414B40C948B32863F72
:1045B000E1E09E0711F40C941632FCF48C3A21E0F1
:1045C000920709F40BC73CF4853A914011F40C941E
:1045D00069310C943A32843F51E0950711F40C9400
:1045E000FD31853F914011F00C943A320E94DF5C1E
:1045F00080E00E94A8580C948B328B38B3E09B0764
:1046000011F40C948B323CF4873F914011F40C94DC
:1046100019320C943A32803A23E0920709F47AC1B5
:10462000873E934011F40C9425320C943A320E9448
:10463000C5B80C948B320E94EBC40C948B32109250
:10464000CD101092CE100C948B328091CE1081112F
:104650002093CD100E94684B0C948B321092CD1099
:104660000E94A14B0C948B328091CE10882311F4C0
:104670000C948B3283E50E940B3E81110C94953291
:104680000C948B3283E40E94C43D882399F1E3EEBD
:10469000F1E084918F010F5F1F4F882321F00E946A
:1046A000273EF801F6CF80919812882391F0BE0141
:1046B0006F5F7F4F85E992E10E94DC828E010F5F80
:1046C0001F4FD8018D918D01882379F00E94273EDC
:1046D000F8CFE6EBF1E084918F010F5F1F4F882345
:1046E00021F00E94273EF801F6CF8AE00E94273E83
:1046F0000C948B328091CE10882371F18091CD1073
:10470000882351F1E0ECF1E084918F010F5F1F4F9E
:10471000882321F00E94273EF801F6CF60914613CE
:104720007091471380914813909149134AE00E9479
:10473000BD408FE20E94273E609142137091431367
:1047400080914413909145134AE00E94BD408AE055
:104750000E94273E0C948B32E2EDF1E084918F01B0
:104760000F5F1F4F882311F40C948B320E94273E59
:10477000F801F4CF8091CE10882311F40C948B3281
:1047800085E992E10E943F7E85E992E10E940080E6
:104790001092CC101092CB100091950B1091960BAB
:1047A0008091CE10882311F40C948B320E945BC947
:1047B000B801CE014C960E94A3C88C01892B11F43C
:1047C0000C948B326C8D7D8D6115710511F06C5FD1
:1047D0007F4F19821C8222E0A801CE0101960E941F
:1047E000EE81811102C0F12C14C0CE0101960E940D
:1047F00011C88823C1F361E0CE0101960E94247E96
:10480000009789F325EEFC0120831C820E943B7BEC
:10481000F82ECE0101960E94173EFF2011F1E2EF23
:10482000F1E084917F012FEFE21AF20A882321F050
:104830000E94273EF701F5CFD8018D918D01882385
:1048400019F00E94273EF8CF8AE00E94273E10927E
:1048500046131092471310924813109249130C9468
:104860008B32E0E0F2E084917F01BFEFEB1AFB0AAC
:10487000882321F00E94273EF701F5CFF8018191AE
:104880008F01882319F00E94273EF8CF8EE20E9404
:10489000273E0C948B328091CD1081110E9491772C
:1048A0008091CE10882311F40C948B3280E50E9405
:1048B0000B3E882319F00E94823D03C080E50E94D0
:1048C000C43D182F482F61E08091950B9091960B75
:1048D0000E94FDC283E50E940B3E882381F00E9466
:1048E000613DAB01BC014093461350934713609365
:1048F00048137093491385E992E10E94B17B80913E
:10490000CE10882319F081E08093CD1011110C9402
:104910008B32A0CE8091950B9091960B21E0209345
:10492000CC1040E060E00E94FDC20C948B320E94EB
:10493000344B1CE3C12ED12CE12CF12CA7019601A4
:104940000E9477FD762E672ECA01B901A701960154
:104950000E9477FD6B017C01CA01B90128E130E0BA
:1049600040E050E00E9477FD4B015C01C9016DE61B
:1049700071E00E946FF18E010F5F1F4F611571058D
:1049800099F06F927F92DF92CF929F928F929F9336
:104990008F937F936F9380E492E09F938F931F9305
:1049A0000F930E944BF912C00097B1F06F927F9263
:1049B000DF92CF929F928F929F938F9380E392E0AA
:1049C0009F938F931F930F930E944BF90FB6F89408
:1049D000DEBF0FBECDBF36C081149104A104B10467
:1049E00079F06F927F92DF92CF929F928F9284E2C2
:1049F00092E09F938F931F930F930E944BF9E6CF02
:104A0000C114D104E104F10469F06F927F92DF9246
:104A1000CF928CE192E09F938F931F930F930E940C
:104A20004BF9D4CF6F927F9288E192E09F938F935E
:104A30001F930F930E944BF90F900F900F900F90C0
:104A40000F900F9060E0C8010E9420E3E0EEFAE2D0
:104A500084917F01BFEFEB1AFB0A882321F00E94AB
:104A6000273EF701F5CFB80184E592E00E94F153AB
:104A70008AE00E94273E0C948B320E94684B0C9473
:104A80008B320E94A14B0C948B320E94B64B0C943B
:104A90008B328EE40E940B3E882311F40C948B32EF
:104AA0000E94613D60933E1070933F1080934010D0
:104AB000909341100C948B320E9432B70C948B323D
:104AC000109225020C948B320E9408B70C948B3202
:104AD00089E690E00E942341811111C0EAE6F2E0EC
:104AE00084918F010F5F1F4F882321F00E94273E82
:104AF000F801F6CF0E948FB38AE00E94273E109201
:104B0000340C0C94143883E50E940B3E882311F476
:104B10000C948B320E94713D182F8D3308F01CE3EA
:104B200010933D0C0E9483996B017C01212F30E092
:104B3000A8EEB3E00E94A3FDC60ED71EE81EF91E24
:104B4000C092390CD0923A0CE0923B0CF0923C0CA3
:104B50000C948B328DE690E00E94234181110C94DD
:104B60008B328091270B83FF02C00C948B3283E53C
:104B70000E940B3E8CAB81110C94A63282E50E9400
:104B80000B3E81110C94A6320C948B328091270B32
:104B900083FF02C00C948B3283E50E940B3E882376
:104BA00011F40C948B320E94913D0E9421F36639DE
:104BB000710514F066E970E07093E9136093E813EF
:104BC0000E9446D40C948B328091270B83FF02C045
:104BD0000C948B3283E50E940B3E2D968FAF2D9760
:104BE00081110C94593482E50E940B3E81110C9482
:104BF00059340C948B3280E50E940B3E811106C023
:104C000083E50E940B3E882361F006C00E94713D3F
:104C100081110C948B32F4CF0E94613D6F3F71057E
:104C200010F06FEF70E07093ED136093EC130C9441
:104C30008B320E94C6B60C948B32109207030C94F0
:104C40008B3281E0809307030C948B320E9468B60C
:104C50000C948B3283E50E94C43D882311F40C949C
:104C60008B320E94913D20E030E04AE754E40E94FC
:104C700017FA0E9427F360934402709345028093D1
:104C80004602909347020C948B3265E7C62E62E091
:104C9000D62E7DE2E72E7BE0F72E10E0D6018D9137
:104CA0006D010E94C43D882309F46DC0133009F0E2
:104CB00063C00E94913D4B015C0120E030E040EA7E
:104CC00051E40E94B2F987FF4EC0A50194016091A2
:104CD000390B70913A0B80913B0B90913C0B0E94E9
:104CE000B0F22B013C019B01AC016091020E70916E
:104CF000030E8091040E9091050E0E9417FA6093A6
:104D0000020E7093030E8093040E9093050EA30180
:104D100092016091D60D7091D70D8091D80D909130
:104D2000D90D0E9417FA6093D60D7093D70D80931A
:104D3000D80D9093D90D6091CE037091CF038091DF
:104D4000D0039091D1030E94B6F9A30192010E9471
:104D500017FA0E9427F36093CE037093CF038093DA
:104D6000D0039093D1038092390B90923A0BA0928A
:104D70003B0BB0923C0B07C00E94913DF701608352
:104D80007183828393831F5FF4E0EF0EF11C143074
:104D900009F084CF0E94B3540C948B320E94917717
:104DA00083E50E940B3E882309F456C00E94613DB2
:104DB0006230710509F050C00E94EAA38BE50E94A1
:104DC000273E6091280C7091290C80912A0C9091BB
:104DD0002B0C42E00E94794140912C0C50912D0CFB
:104DE00060912E0C70912F0C80EB92E00E94BB53CF
:104DF0004091300C5091310C6091320C7091330C19
:104E00008DEA92E00E94BB538DE50E94273E8AE026
:104E10000E94273E0C948B32B5E7CB2EB2E0DB2EFE
:104E200019E6E12E19E0F12E10E0D6018D916D0109
:104E30000E94C43D882351F00E94913DF701608398
:104E4000718382839383812F0E944F3C1F5FF4E024
:104E5000EF0EF11C133049F70E9496B40C948B327C
:104E6000E2E9F3E084918F010F5F1F4F882321F067
:104E70000E94273EF801F6CF60E082E893E00E94AE
:104E800052B460E08BE793E00E9452B461E080E7A7
:104E900093E00E9452B461E080E693E00E9452B435
:104EA00060E087E593E00E9452B461E08DE493E016
:104EB0000E9452B460E083E493E00E9452B460E048
:104EC0008BE393E00E9452B461E08DE293E00E9494
:104ED00052B460E08FE193E00E9452B461E080E15F
:104EE00093E00E9452B460E082E093E00E9452B4EA
:104EF00060E08CEE92E00E9452B460E08BED92E0B4
:104F00000E9452B460E086EC92E00E9452B461E0EC
:104F100083EB92E00E9452B40C948B328091950BFB
:104F20009091960BDC012C91211104C00E9439AEA6
:104F30000C948B3260E00E9420E30C948B32009141
:104F4000950B1091960B83E0D12C40E08150E1F05D
:104F5000F8019081292F2B7F2134C1F72181213342
:104F6000A9F7913421F0953421F441E002C0DD2409
:104F7000D39498012E5F3F4F89012F5F3F4FD80197
:104F80009C919032C9F3E2CF442369F0E0EEFAE25B
:104F900084917F01BFEFEB1AFB0A882321F00E9466
:104FA000273EF701F5CFDD2069F0E3E5F4E08491D9
:104FB0007F012FEFE21AF20A882321F00E94273E98
:104FC000F701F5CFD8018D918D01882309F48DCBA0
:104FD0000E94273EF7CF0E947D580C948B3281E0CF
:104FE00080936709809366090C948B32109267094D
:104FF000109266090C948B3283E50E940B3E882345
:1050000019F00E94613D02C060E070E08B01112741
:1050100002301105D4F0E5ECFAE284918F010F5FC4
:105020001F4F882321F00E94273EF801F6CFE7E5C5
:10503000F4E084918F010F5F1F4F882311F40C94CB
:105040008B320E94273EF801F4CF88E40E940B3E89
:105050008823A9F00E94613D6A3A71053CF06530F1
:10506000B1E07B072CF064E071E002C06AEA70E016
:10507000F801EE0FFF1FEE5EF44F7183608386E44C
:105080000E940B3E8823A9F00E94613DF801EE0FBB
:10509000FF1FEA5EF44F718360836F3F710519F063
:1050A00014F06FEF70E077FF02C060E070E0718392
:1050B000608382E40E940B3E882311F40C948B32AF
:1050C0000E94613D6530710534F0683871052CF03F
:1050D00067E870E002C065E070E0000F111FF801A2
:1050E000E25FF44F718360830C948B3288EC90E024
:1050F0000E94234181110C948B3284E40E94C43DB0
:105100008823C1F10E94913D11E020E030E0A90127
:105110000E94B2F9811101C010E01093410B1123DC
:1051200049F10E94913DE091980C24E0E29FF0014A
:105130001124E35CF44F608371838283938320E0C6
:1051400030E0A90160913D0B70913E0B80913F0BC7
:105150009091400B0E94B2F981110CC080E090E068
:10516000A0E4B0E480933D0B90933E0BA0933F0BE3
:10517000B093400B0E9425550C948B32D8018D9131
:105180008D010E94C43D882349F00E94913D0E94F8
:1051900027F3F7016083718382839383F4E0EF0E3A
:1051A000F11CD012EBCF0E9449540C948B320AECC4
:1051B000E02E0DE0F02E05E712E084E0D82ED00EB0
:1051C000D8018D918D010E94C43D882339F00E9441
:1051D000913DF7016083718382839383F4E0EF0E46
:1051E000F11CD012EDCF0C948B3283E50E940B3E64
:1051F0008823A1F00E94913D6093F20D7093F30D0E
:105200008093F40D9093F50D6093EA0D7093EB0D80
:105210008093EC0D9093ED0D10E001C011E080E55E
:105220000E940B3E882359F00E94913D6093F20D3D
:105230007093F30D8093F40D9093F50D10E082E5DB
:105240000E940B3E882359F00E94913D6093EE0D21
:105250007093EF0D8093F00D9093F10D10E084E5C5
:105260000E940B3E882361F00E94913D6093EA0DFD
:105270007093EB0D8093EC0D9093ED0D0C948B32AD
:10528000112311F40C948B324091F20D5091F30DD7
:105290006091F40D7091F50D8FE794E00E94BB537F
:1052A0004091EE0D5091EF0D6091F00D7091F10D68
:1052B0008CE794E00E94BB534091EA0D5091EB0DB6
:1052C0006091EC0D7091ED0D89E794E00E94BB5365
:1052D0008AE00E94273E0C948B3281E50E94C43DF7
:1052E000882351F00E94513D6093220B7093230B51
:1052F0008093240B9093250B83E50E94C43D882363
:1053000051F00E94913D6093C60D7093C70D80933C
:10531000C80D9093C90D84E50E94C43D882351F0C7
:105320000E94913D6093C20D7093C30D8093C40D94
:105330009093C50D88E50E94C43D882351F00E94DA
:10534000913D6093F60D7093F70D8093F80D909357
:10535000F90D89E50E94C43D882351F00E94913DDA
:105360006093FA0D7093FB0D8093FC0D9093FD0DEF
:105370008AE50E94C43D8823F1F00E94913D60932C
:10538000FE0D7093FF0D8093000E9093010E2DEC97
:105390003CEC4CEC5DE30E94B2F9181664F0EFE8C7
:1053A000F4E084918F010F5F1F4F882321F00E944A
:1053B000273EF801F6CF85E40E94C43D882311F40E
:1053C0000C948B320E94913D6093020E7093030EF9
:1053D0008093040E9093050E0C948B320E9461B55D
:1053E0000C948B3284918F010F5F1F4F882321F023
:1053F0000E94273EF801F6CF83E50E94C43D882332
:1054000021F00E94823D80930E02E9EEF4E0849147
:105410008F010F5F1F4F882321F00E94273EF80164
:10542000F6CF80910E02811103C0E5EEF4E002C0D8
:10543000E1EEF4E084918F010F5F1F4F882321F08C
:105440000E94273EF801F6CFE9EDF4E084918F0148
:105450000F5F1F4F882321F00E94273EF801F6CFEF
:105460002091A1033091A2034091A3035091A40382
:105470006091AD037091AE038091AF039091B00342
:105480000E94C4F1AB01BC0187ED94E00E94BB53C4
:105490002091A5033091A6034091A7035091A80342
:1054A0006091B1037091B2038091B3039091B40302
:1054B0000E94C4F1AB01BC0184ED94E00E94BB5397
:1054C0002091A9033091AA034091AB035091AC0302
:1054D0006091B5037091B6038091B7039091B803C2
:1054E0000E94C4F1AB01BC0181ED94E00E94BB536A
:1054F000E9ECF4E084918F010F5F1F4F882321F0C6
:105500000E94273EF801F6CF2091A1033091A2031B
:105510004091A3035091A403609102027091030291
:1055200080910402909105020E94C4F1AB01BC017C
:1055300087EC94E00E94BB532091A5033091A60311
:105540004091A7035091A803609106027091070251
:1055500080910802909109020E94C4F1AB01BC0144
:1055600084EC94E00E94BB532091A9033091AA03DC
:105570004091AB035091AC0360910A0270910B0211
:1055800080910C0290910D020E94C4F1AB01BC010C
:1055900081EC94E00E94BB538AE00E94273EBBC787
:1055A00083E50E940B3E882309F4B5C70E94613D44
:1055B0007093660260936502AEC78DED90E00E9425
:1055C00023418111A8C783E50E940B3E8823D9F1AE
:1055D0000091980C10E00E94613D000F111FF8012E
:1055E000ED59FD4F718360838091980C90E08C01A0
:1055F000000F111F000F111F9801215A3D4F790113
:10560000880F991FFC01ED59FD4F60817181072EB4
:10561000000C880B990B0E94B8F92AE037ED43E2A1
:105620005CE30E9417FAF801E15BFC4E20813181B6
:10563000428153810E9417FAD7016D937D938D9318
:105640009C93139768C7E0EEFAE284918F010F5F95
:105650001F4F882321F00E94273EF801F6CF85E4F2
:105660000E94273E8091980C805D0E94273EE09129
:10567000980CF0E0EE0FFF1FED59FD4F6081718136
:1056800089EF94E00E94D85385E20E94273E8AE089
:105690000E94273E40C780E50E94C43D882309F44C
:1056A0003AC70E94613D6B017C0183E50E940B3E7D
:1056B000882321F00E94613D8B0102C00FEF1FEF94
:1056C000C8010196039708F026C7D7FC24C79C2D74
:1056D000E1E0F5E08DE28E0F2491921711F40C9425
:1056E0000D3631968E13F8CF0C94103683E50E9458
:1056F0000B3E882319F00E94613D02C064E071E016
:105700007D8F6C8F80E50E940B3E882339F00E94CC
:10571000613D6938B3E17B0730F402C068EE73E0A5
:105720007A83698304C088E893E19A838983BE0100
:10573000645E7F4FCE0101960E942DC6ECC685E4C3
:105740000E940B3E811110C080E50E94C43D882359
:1057500091F00E94913D6093010B7093020B809336
:10576000030B9093040B07C00E94713D882361F3E3
:10577000E5ECFAE26EC089E40E94C43D882381F022
:105780000E94913D2CEA35EC47E25EE30E9417FA55
:105790006093090B70930A0B80930B0B90930C0B87
:1057A00084E40E94C43D882381F00E94913D2CEA4C
:1057B00035EC47E25EE30E94B0F26093050B709314
:1057C000060B8093070B9093080BE0EEFAE28491AE
:1057D0008F010F5F1F4F882321F00E94273EF801A1
:1057E000F6CF4091010B5091020B6091030B709129
:1057F000040B86E395E00E94BB532CEA35EC47E2AC
:105800005EE36091090B70910A0B80910B0B9091F4
:105810000C0B0E94B0F2AB01BC0182E395E00E9448
:10582000BB532CEA35EC47E25EE36091050B7091C7
:10583000060B8091070B9091080B0E9417FAAB01A1
:10584000BC018EE295E00E94BB538AE00E94273E95
:1058500062C684918F010F5F1F4F882321F00E9441
:10586000273EF801F6CFEAE3F5E084918F010F5F60
:105870001F4F882309F44FC60E94273EF801F5CF39
:1058800083E50E94C43D182F882371F00E94913D4A
:105890000E9421F3709333026093320221E0672B60
:1058A00009F020E02093260B80E50E94C43D882368
:1058B00059F02091320230913302232B11F00E94D3
:1058C000823D8093260B27C6111125C6E0EEFAE231
:1058D00084918F010F5F1F4F882321F00E94273E84
:1058E000F801F6CF8091260B811103C06EEB72E0B8
:1058F00002C06BEB72E081E695E00E94F15360918B
:1059000032027091330280E595E00E94D853ECE4B6
:10591000F5E084918F010F5F1F4F882309F4FBC5C9
:105920000E94273EF801F5CF85E40E940B3E8823B4
:1059300021F00E94613D7B0102C0E12CF12C83E447
:105940000E940B3E882331F00E94613DE6966FAFC6
:10595000E69704C025E0E6962FAFE69785E50E941E
:105960000B3E882319F00E94823D03C085E50E940A
:10597000C43DCF57DF4F8883C158D040F7FC07C0E4
:10598000812C912C56E1A52E53E4B52E06C0812C16
:10599000912C4CE8A42E42E4B42E83E50E940B3EE9
:1059A000882321F00E94913D4B015C01E114F10438
:1059B00011F41092980C0E9483992B013C01EE2067
:1059C00069F0E3EEF6E084918F010F5F1F4F8823AB
:1059D00009F4A1C50E94273EF801F5CFEDE0F7E0FC
:1059E00084917F013FEFE31AF30A882321F00E949C
:1059F000273EF701F5CFC501B4010E9421F3072E20
:105A0000000C880B990B0E94B8F921966FAF219773
:105A10007CAF25968FAF259729969FAF2997D30105
:105A2000C201805E914BAF4FBF4FC657DF4F888397
:105A30009983AA83BB83CA58D0400E94DCD48FE7E5
:105A40008093960C81E080932502ED964CAE5DAE7E
:105A50006EAE7FAEED97CE57DF4F488259826A8295
:105A60007B82C258D040E9961FAEE997CA57DF4FF4
:105A7000188219821A821B82C658D0406D961FAEBA
:105A80006D9790E461969FAF6197ACE16596AFAF7B
:105A90006597B6E4A196BFAFA19769961FAE6997C7
:105AA000A5961FAEA597A9961FAEA997AD961FAE56
:105AB000AD97E5961CAE1DAE1EAE1FAEE597E19606
:105AC0001CAE1DAE1EAE1FAEE197C12CD12C7601CF
:105AD0002FE730E040E050E028AF39AF4AAF5BAF8E
